{
  "contractName": "Pool",
  "abi": [
    {
      "inputs": [],
      "stateMutability": "nonpayable",
      "type": "constructor"
    },
    {
      "anonymous": false,
      "inputs": [
        {
          "indexed": true,
          "internalType": "address",
          "name": "_address",
          "type": "address"
        },
        {
          "indexed": false,
          "internalType": "uint256",
          "name": "_value",
          "type": "uint256"
        }
      ],
      "name": "Deposit",
      "type": "event"
    },
    {
      "anonymous": false,
      "inputs": [
        {
          "indexed": true,
          "internalType": "bytes32",
          "name": "role",
          "type": "bytes32"
        },
        {
          "indexed": true,
          "internalType": "bytes32",
          "name": "previousAdminRole",
          "type": "bytes32"
        },
        {
          "indexed": true,
          "internalType": "bytes32",
          "name": "newAdminRole",
          "type": "bytes32"
        }
      ],
      "name": "RoleAdminChanged",
      "type": "event"
    },
    {
      "anonymous": false,
      "inputs": [
        {
          "indexed": true,
          "internalType": "bytes32",
          "name": "role",
          "type": "bytes32"
        },
        {
          "indexed": true,
          "internalType": "address",
          "name": "account",
          "type": "address"
        },
        {
          "indexed": true,
          "internalType": "address",
          "name": "sender",
          "type": "address"
        }
      ],
      "name": "RoleGranted",
      "type": "event"
    },
    {
      "anonymous": false,
      "inputs": [
        {
          "indexed": true,
          "internalType": "bytes32",
          "name": "role",
          "type": "bytes32"
        },
        {
          "indexed": true,
          "internalType": "address",
          "name": "account",
          "type": "address"
        },
        {
          "indexed": true,
          "internalType": "address",
          "name": "sender",
          "type": "address"
        }
      ],
      "name": "RoleRevoked",
      "type": "event"
    },
    {
      "anonymous": false,
      "inputs": [
        {
          "indexed": true,
          "internalType": "address",
          "name": "_address",
          "type": "address"
        },
        {
          "indexed": false,
          "internalType": "uint256",
          "name": "_value",
          "type": "uint256"
        }
      ],
      "name": "Withdraw",
      "type": "event"
    },
    {
      "inputs": [],
      "name": "DEFAULT_ADMIN_ROLE",
      "outputs": [
        {
          "internalType": "bytes32",
          "name": "",
          "type": "bytes32"
        }
      ],
      "stateMutability": "view",
      "type": "function",
      "constant": true
    },
    {
      "inputs": [],
      "name": "TEAM_MEMBER_ROLE",
      "outputs": [
        {
          "internalType": "bytes32",
          "name": "",
          "type": "bytes32"
        }
      ],
      "stateMutability": "view",
      "type": "function",
      "constant": true
    },
    {
      "inputs": [
        {
          "internalType": "address",
          "name": "",
          "type": "address"
        }
      ],
      "name": "deposits",
      "outputs": [
        {
          "internalType": "uint256",
          "name": "value",
          "type": "uint256"
        },
        {
          "internalType": "bool",
          "name": "hasValue",
          "type": "bool"
        }
      ],
      "stateMutability": "view",
      "type": "function",
      "constant": true
    },
    {
      "inputs": [
        {
          "internalType": "bytes32",
          "name": "role",
          "type": "bytes32"
        }
      ],
      "name": "getRoleAdmin",
      "outputs": [
        {
          "internalType": "bytes32",
          "name": "",
          "type": "bytes32"
        }
      ],
      "stateMutability": "view",
      "type": "function",
      "constant": true
    },
    {
      "inputs": [
        {
          "internalType": "bytes32",
          "name": "role",
          "type": "bytes32"
        },
        {
          "internalType": "address",
          "name": "account",
          "type": "address"
        }
      ],
      "name": "grantRole",
      "outputs": [],
      "stateMutability": "nonpayable",
      "type": "function"
    },
    {
      "inputs": [
        {
          "internalType": "bytes32",
          "name": "role",
          "type": "bytes32"
        },
        {
          "internalType": "address",
          "name": "account",
          "type": "address"
        }
      ],
      "name": "hasRole",
      "outputs": [
        {
          "internalType": "bool",
          "name": "",
          "type": "bool"
        }
      ],
      "stateMutability": "view",
      "type": "function",
      "constant": true
    },
    {
      "inputs": [
        {
          "internalType": "bytes32",
          "name": "role",
          "type": "bytes32"
        },
        {
          "internalType": "address",
          "name": "account",
          "type": "address"
        }
      ],
      "name": "renounceRole",
      "outputs": [],
      "stateMutability": "nonpayable",
      "type": "function"
    },
    {
      "inputs": [
        {
          "internalType": "bytes32",
          "name": "role",
          "type": "bytes32"
        },
        {
          "internalType": "address",
          "name": "account",
          "type": "address"
        }
      ],
      "name": "revokeRole",
      "outputs": [],
      "stateMutability": "nonpayable",
      "type": "function"
    },
    {
      "inputs": [
        {
          "internalType": "bytes4",
          "name": "interfaceId",
          "type": "bytes4"
        }
      ],
      "name": "supportsInterface",
      "outputs": [
        {
          "internalType": "bool",
          "name": "",
          "type": "bool"
        }
      ],
      "stateMutability": "view",
      "type": "function",
      "constant": true
    },
    {
      "inputs": [],
      "name": "total",
      "outputs": [
        {
          "internalType": "uint256",
          "name": "",
          "type": "uint256"
        }
      ],
      "stateMutability": "view",
      "type": "function",
      "constant": true
    },
    {
      "inputs": [
        {
          "internalType": "uint256",
          "name": "",
          "type": "uint256"
        }
      ],
      "name": "users",
      "outputs": [
        {
          "internalType": "address",
          "name": "",
          "type": "address"
        }
      ],
      "stateMutability": "view",
      "type": "function",
      "constant": true
    },
    {
      "stateMutability": "payable",
      "type": "receive",
      "payable": true
    },
    {
      "inputs": [],
      "name": "depositRewards",
      "outputs": [],
      "stateMutability": "payable",
      "type": "function",
      "payable": true
    },
    {
      "inputs": [],
      "name": "withdraw",
      "outputs": [],
      "stateMutability": "nonpayable",
      "type": "function"
    },
    {
      "inputs": [
        {
          "internalType": "address",
          "name": "account",
          "type": "address"
        }
      ],
      "name": "addTeamMember",
      "outputs": [],
      "stateMutability": "nonpayable",
      "type": "function"
    },
    {
      "inputs": [
        {
          "internalType": "address",
          "name": "account",
          "type": "address"
        }
      ],
      "name": "removeTeamMember",
      "outputs": [],
      "stateMutability": "nonpayable",
      "type": "function"
    },
    {
      "inputs": [],
      "name": "getTotalSupplyPool",
      "outputs": [
        {
          "internalType": "uint256",
          "name": "totalSupply",
          "type": "uint256"
        }
      ],
      "stateMutability": "view",
      "type": "function",
      "constant": true
    }
  ],
  "bytecode": "0x60806040523480156200001157600080fd5b50620000276000801b336200005f60201b60201c565b620000597f8e686555a55ab6b23aa445db999c535d72a040cce9fe8b191d10aa2671cf528e336200005f60201b60201c565b620001d8565b6200007182826200007560201b60201c565b5050565b6200008782826200016660201b60201c565b6200016257600160008084815260200190815260200160002060000160008373ffffffffffffffffffffffffffffffffffffffff1673ffffffffffffffffffffffffffffffffffffffff16815260200190815260200160002060006101000a81548160ff02191690831515021790555062000107620001d060201b60201c565b73ffffffffffffffffffffffffffffffffffffffff168173ffffffffffffffffffffffffffffffffffffffff16837f2f8788117e7eff1d82e926ec794901d17c78024a50270940304540a733656f0d60405160405180910390a45b5050565b600080600084815260200190815260200160002060000160008373ffffffffffffffffffffffffffffffffffffffff1673ffffffffffffffffffffffffffffffffffffffff16815260200190815260200160002060009054906101000a900460ff16905092915050565b600033905090565b611abc80620001e86000396000f3fe6080604052600436106100f75760003560e01c80633ccfd60b1161008a57806398f2784c1161005957806398f2784c146104e5578063a217fddf14610510578063d547741f1461053b578063fc7e286d14610564576102d1565b80633ccfd60b1461043d5780633eb2b5ad146104545780636b9cbe111461047d57806391d14854146104a8576102d1565b80632ddbd13a116100c65780632ddbd13a146103835780632f2ff15d146103ae57806336568abe146103d7578063365b98b214610400576102d1565b806301ffc9a7146102d657806314eba02614610313578063152111f71461033c578063248a9ca314610346576102d1565b366102d157600360003373ffffffffffffffffffffffffffffffffffffffff1673ffffffffffffffffffffffffffffffffffffffff16815260200190815260200160002060010160009054906101000a900460ff166101b4576002339080600181540180825580915050600190039060005260206000200160009091909190916101000a81548173ffffffffffffffffffffffffffffffffffffffff021916908373ffffffffffffffffffffffffffffffffffffffff1602179055505b34600360003373ffffffffffffffffffffffffffffffffffffffff1673ffffffffffffffffffffffffffffffffffffffff168152602001908152602001600020600001600082825461020691906117b6565b925050819055506001600360003373ffffffffffffffffffffffffffffffffffffffff1673ffffffffffffffffffffffffffffffffffffffff16815260200190815260200160002060010160006101000a81548160ff021916908315150217905550346001600082825461027a91906117b6565b925050819055503373ffffffffffffffffffffffffffffffffffffffff167fe1fffcc4923d04b559f4d29a8bfc6cda04eb5b0d3c460751c2402c5c5cc9109c346040516102c79190611740565b60405180910390a2005b600080fd5b3480156102e257600080fd5b506102fd60048036038101906102f891906112c0565b6105a2565b60405161030a9190611648565b60405180910390f35b34801561031f57600080fd5b5061033a60048036038101906103359190611232565b61061c565b005b610344610649565b005b34801561035257600080fd5b5061036d6004803603810190610368919061125b565b61080a565b60405161037a9190611663565b60405180910390f35b34801561038f57600080fd5b50610398610829565b6040516103a59190611740565b60405180910390f35b3480156103ba57600080fd5b506103d560048036038101906103d09190611284565b61082f565b005b3480156103e357600080fd5b506103fe60048036038101906103f99190611284565b610850565b005b34801561040c57600080fd5b50610427600480360381019061042291906112e9565b6108d3565b604051610434919061162d565b60405180910390f35b34801561044957600080fd5b50610452610912565b005b34801561046057600080fd5b5061047b60048036038101906104769190611232565b610ae2565b005b34801561048957600080fd5b50610492610b0f565b60405161049f9190611663565b60405180910390f35b3480156104b457600080fd5b506104cf60048036038101906104ca9190611284565b610b33565b6040516104dc9190611648565b60405180910390f35b3480156104f157600080fd5b506104fa610b9d565b6040516105079190611740565b60405180910390f35b34801561051c57600080fd5b50610525610ba7565b6040516105329190611663565b60405180910390f35b34801561054757600080fd5b50610562600480360381019061055d9190611284565b610bae565b005b34801561057057600080fd5b5061058b60048036038101906105869190611232565b610bcf565b60405161059992919061175b565b60405180910390f35b60007f7965db0b000000000000000000000000000000000000000000000000000000007bffffffffffffffffffffffffffffffffffffffffffffffffffffffff1916827bffffffffffffffffffffffffffffffffffffffffffffffffffffffff19161480610615575061061482610c00565b5b9050919050565b6106467f8e686555a55ab6b23aa445db999c535d72a040cce9fe8b191d10aa2671cf528e82610bae565b50565b6106737f8e686555a55ab6b23aa445db999c535d72a040cce9fe8b191d10aa2671cf528e33610b33565b6106b2576040517f08c379a00000000000000000000000000000000000000000000000000000000081526004016106a9906116e0565b60405180910390fd5b6000600154116106c157600080fd5b60005b6002805490508110156108075760006002828154811061070d577f4e487b7100000000000000000000000000000000000000000000000000000000600052603260045260246000fd5b9060005260206000200160009054906101000a900473ffffffffffffffffffffffffffffffffffffffff169050600060015434600360008573ffffffffffffffffffffffffffffffffffffffff1673ffffffffffffffffffffffffffffffffffffffff1681526020019081526020016000206000015461078d919061183d565b610797919061180c565b905080600360008473ffffffffffffffffffffffffffffffffffffffff1673ffffffffffffffffffffffffffffffffffffffff16815260200190815260200160002060000160008282546107eb91906117b6565b92505081905550505080806107ff90611972565b9150506106c4565b50565b6000806000838152602001908152602001600020600101549050919050565b60015481565b6108388261080a565b61084181610c6a565b61084b8383610c7e565b505050565b610858610d5e565b73ffffffffffffffffffffffffffffffffffffffff168173ffffffffffffffffffffffffffffffffffffffff16146108c5576040517f08c379a00000000000000000000000000000000000000000000000000000000081526004016108bc90611720565b60405180910390fd5b6108cf8282610d66565b5050565b600281815481106108e357600080fd5b906000526020600020016000915054906101000a900473ffffffffffffffffffffffffffffffffffffffff1681565b6000600360003373ffffffffffffffffffffffffffffffffffffffff1673ffffffffffffffffffffffffffffffffffffffff1681526020019081526020016000206000015490506000811161099c576040517f08c379a000000000000000000000000000000000000000000000000000000000815260040161099390611700565b60405180910390fd5b6000600360003373ffffffffffffffffffffffffffffffffffffffff1673ffffffffffffffffffffffffffffffffffffffff1681526020019081526020016000206000018190555060003373ffffffffffffffffffffffffffffffffffffffff1682604051610a0a906115de565b60006040518083038185875af1925050503d8060008114610a47576040519150601f19603f3d011682016040523d82523d6000602084013e610a4c565b606091505b5050905080610a90576040517f08c379a0000000000000000000000000000000000000000000000000000000008152600401610a87906116c0565b60405180910390fd5b3373ffffffffffffffffffffffffffffffffffffffff167f884edad9ce6fa2440d8a54cc123490eb96d2768479d49ff9c7366125a942436483604051610ad69190611740565b60405180910390a25050565b610b0c7f8e686555a55ab6b23aa445db999c535d72a040cce9fe8b191d10aa2671cf528e8261082f565b50565b7f8e686555a55ab6b23aa445db999c535d72a040cce9fe8b191d10aa2671cf528e81565b600080600084815260200190815260200160002060000160008373ffffffffffffffffffffffffffffffffffffffff1673ffffffffffffffffffffffffffffffffffffffff16815260200190815260200160002060009054906101000a900460ff16905092915050565b6000600154905090565b6000801b81565b610bb78261080a565b610bc081610c6a565b610bca8383610d66565b505050565b60036020528060005260406000206000915090508060000154908060010160009054906101000a900460ff16905082565b60007f01ffc9a7000000000000000000000000000000000000000000000000000000007bffffffffffffffffffffffffffffffffffffffffffffffffffffffff1916827bffffffffffffffffffffffffffffffffffffffffffffffffffffffff1916149050919050565b610c7b81610c76610d5e565b610e47565b50565b610c888282610b33565b610d5a57600160008084815260200190815260200160002060000160008373ffffffffffffffffffffffffffffffffffffffff1673ffffffffffffffffffffffffffffffffffffffff16815260200190815260200160002060006101000a81548160ff021916908315150217905550610cff610d5e565b73ffffffffffffffffffffffffffffffffffffffff168173ffffffffffffffffffffffffffffffffffffffff16837f2f8788117e7eff1d82e926ec794901d17c78024a50270940304540a733656f0d60405160405180910390a45b5050565b600033905090565b610d708282610b33565b15610e4357600080600084815260200190815260200160002060000160008373ffffffffffffffffffffffffffffffffffffffff1673ffffffffffffffffffffffffffffffffffffffff16815260200190815260200160002060006101000a81548160ff021916908315150217905550610de8610d5e565b73ffffffffffffffffffffffffffffffffffffffff168173ffffffffffffffffffffffffffffffffffffffff16837ff6391f5c32d9c69d2a47ea670b442974b53935d1edc7fd64eb21e047a839171b60405160405180910390a45b5050565b610e518282610b33565b610ee057610e768173ffffffffffffffffffffffffffffffffffffffff166014610ee4565b610e848360001c6020610ee4565b604051602001610e959291906115f3565b6040516020818303038152906040526040517f08c379a0000000000000000000000000000000000000000000000000000000008152600401610ed7919061167e565b60405180910390fd5b5050565b606060006002836002610ef7919061183d565b610f0191906117b6565b67ffffffffffffffff811115610f40577f4e487b7100000000000000000000000000000000000000000000000000000000600052604160045260246000fd5b6040519080825280601f01601f191660200182016040528015610f725781602001600182028036833780820191505090505b5090507f300000000000000000000000000000000000000000000000000000000000000081600081518110610fd0577f4e487b7100000000000000000000000000000000000000000000000000000000600052603260045260246000fd5b60200101907effffffffffffffffffffffffffffffffffffffffffffffffffffffffffffff1916908160001a9053507f78000000000000000000000000000000000000000000000000000000000000008160018151811061105a577f4e487b7100000000000000000000000000000000000000000000000000000000600052603260045260246000fd5b60200101907effffffffffffffffffffffffffffffffffffffffffffffffffffffffffffff1916908160001a9053506000600184600261109a919061183d565b6110a491906117b6565b90505b6001811115611190577f3031323334353637383961626364656600000000000000000000000000000000600f86166010811061110c577f4e487b7100000000000000000000000000000000000000000000000000000000600052603260045260246000fd5b1a60f81b828281518110611149577f4e487b7100000000000000000000000000000000000000000000000000000000600052603260045260246000fd5b60200101907effffffffffffffffffffffffffffffffffffffffffffffffffffffffffffff1916908160001a905350600485901c94508061118990611948565b90506110a7565b50600084146111d4576040517f08c379a00000000000000000000000000000000000000000000000000000000081526004016111cb906116a0565b60405180910390fd5b8091505092915050565b6000813590506111ed81611a2a565b92915050565b60008135905061120281611a41565b92915050565b60008135905061121781611a58565b92915050565b60008135905061122c81611a6f565b92915050565b60006020828403121561124457600080fd5b6000611252848285016111de565b91505092915050565b60006020828403121561126d57600080fd5b600061127b848285016111f3565b91505092915050565b6000806040838503121561129757600080fd5b60006112a5858286016111f3565b92505060206112b6858286016111de565b9150509250929050565b6000602082840312156112d257600080fd5b60006112e084828501611208565b91505092915050565b6000602082840312156112fb57600080fd5b60006113098482850161121d565b91505092915050565b61131b81611897565b82525050565b61132a816118a9565b82525050565b611339816118b5565b82525050565b600061134a82611784565b611354818561179a565b9350611364818560208601611915565b61136d81611a19565b840191505092915050565b600061138382611784565b61138d81856117ab565b935061139d818560208601611915565b80840191505092915050565b60006113b660208361179a565b91507f537472696e67733a20686578206c656e67746820696e73756666696369656e746000830152602082019050919050565b60006113f6600f8361179a565b91507f5472616e73666572206661696c656400000000000000000000000000000000006000830152602082019050919050565b6000611436601b8361179a565b91507f43616c6c6572206973206e6f742061207465616d206d656d62657200000000006000830152602082019050919050565b600061147660008361178f565b9150600082019050919050565b60006114906017836117ab565b91507f416363657373436f6e74726f6c3a206163636f756e74200000000000000000006000830152601782019050919050565b60006114d060288361179a565b91507f596f7520646f6e2774206861766520616e797468696e67206c65667420746f2060008301527f77697468647261770000000000000000000000000000000000000000000000006020830152604082019050919050565b60006115366011836117ab565b91507f206973206d697373696e6720726f6c65200000000000000000000000000000006000830152601182019050919050565b6000611576602f8361179a565b91507f416363657373436f6e74726f6c3a2063616e206f6e6c792072656e6f756e636560008301527f20726f6c657320666f722073656c6600000000000000000000000000000000006020830152604082019050919050565b6115d88161190b565b82525050565b60006115e982611469565b9150819050919050565b60006115fe82611483565b915061160a8285611378565b915061161582611529565b91506116218284611378565b91508190509392505050565b60006020820190506116426000830184611312565b92915050565b600060208201905061165d6000830184611321565b92915050565b60006020820190506116786000830184611330565b92915050565b60006020820190508181036000830152611698818461133f565b905092915050565b600060208201905081810360008301526116b9816113a9565b9050919050565b600060208201905081810360008301526116d9816113e9565b9050919050565b600060208201905081810360008301526116f981611429565b9050919050565b60006020820190508181036000830152611719816114c3565b9050919050565b6000602082019050818103600083015261173981611569565b9050919050565b600060208201905061175560008301846115cf565b92915050565b600060408201905061177060008301856115cf565b61177d6020830184611321565b9392505050565b600081519050919050565b600081905092915050565b600082825260208201905092915050565b600081905092915050565b60006117c18261190b565b91506117cc8361190b565b9250827fffffffffffffffffffffffffffffffffffffffffffffffffffffffffffffffff03821115611801576118006119bb565b5b828201905092915050565b60006118178261190b565b91506118228361190b565b925082611832576118316119ea565b5b828204905092915050565b60006118488261190b565b91506118538361190b565b9250817fffffffffffffffffffffffffffffffffffffffffffffffffffffffffffffffff048311821515161561188c5761188b6119bb565b5b828202905092915050565b60006118a2826118eb565b9050919050565b60008115159050919050565b6000819050919050565b60007fffffffff0000000000000000000000000000000000000000000000000000000082169050919050565b600073ffffffffffffffffffffffffffffffffffffffff82169050919050565b6000819050919050565b60005b83811015611933578082015181840152602081019050611918565b83811115611942576000848401525b50505050565b60006119538261190b565b91506000821415611967576119666119bb565b5b600182039050919050565b600061197d8261190b565b91507fffffffffffffffffffffffffffffffffffffffffffffffffffffffffffffffff8214156119b0576119af6119bb565b5b600182019050919050565b7f4e487b7100000000000000000000000000000000000000000000000000000000600052601160045260246000fd5b7f4e487b7100000000000000000000000000000000000000000000000000000000600052601260045260246000fd5b6000601f19601f8301169050919050565b611a3381611897565b8114611a3e57600080fd5b50565b611a4a816118b5565b8114611a5557600080fd5b50565b611a61816118bf565b8114611a6c57600080fd5b50565b611a788161190b565b8114611a8357600080fd5b5056fea2646970667358221220155d7ce66e4767cc5fc845fffa7dca873f911a4f67d147f3f605a771fb36dd4564736f6c63430008000033",
  "immutableReferences": {},
  "source": "// SPDX-License-Identifier: MIT\r\npragma solidity >=0.6.0;\r\n\r\n/*The most common and basic form of access control is the concept of ownership: theres an account that is the owner of a contract \r\nand can do administrative tasks on it. This approach is perfectly reasonable for contracts that have a single administrative user.\r\nOpenZeppelin Contracts provides Ownable for implementing ownership in your contracts.*/\r\nimport \"@openzeppelin/contracts/access/AccessControl.sol\";\r\n\r\ncontract Pool is AccessControl {\r\n\r\n    event Deposit(address indexed _address, uint256 _value);\r\n    event Withdraw(address indexed _address, uint256 _value);\r\n\r\n    bytes32 public constant TEAM_MEMBER_ROLE = keccak256(\"TEAM_MEMBER_ROLE\");\r\n\r\n    uint256 public total;\r\n\r\n    address[] public users;\r\n\r\n    struct DepositValue {\r\n        uint256 value;\r\n        bool hasValue;\r\n    }\r\n\r\n    mapping(address => DepositValue) public deposits;\r\n\r\n    constructor() {\r\n        _setupRole(DEFAULT_ADMIN_ROLE, msg.sender);\r\n        _setupRole(TEAM_MEMBER_ROLE, msg.sender);\r\n    }\r\n\r\n    receive() external payable {\r\n                \r\n        if(!deposits[msg.sender].hasValue) // only pushes new users\r\n            users.push(msg.sender);\r\n\r\n        deposits[msg.sender].value += msg.value;\r\n        deposits[msg.sender].hasValue = true;\r\n\r\n        total += msg.value;\r\n\r\n        emit Deposit(msg.sender, msg.value);\r\n    }\r\n\r\n    function depositRewards() public payable {\r\n        require(hasRole(TEAM_MEMBER_ROLE, msg.sender), \"Caller is not a team member\");\r\n        require(total > 0); // No rewards to distribute if the pool is empty.\r\n\r\n        for (uint256 i = 0; i < users.length; i++) {\r\n            address user = users[i];\r\n\r\n            uint256 rewards = ((deposits[user].value * msg.value) / total);\r\n\r\n            deposits[user].value += rewards;\r\n        }\r\n    }\r\n\r\n    function withdraw() public {\r\n        uint256 deposit = deposits[msg.sender].value;\r\n\r\n        require(deposit > 0, \"You don't have anything left to withdraw\");\r\n\r\n        deposits[msg.sender].value = 0;\r\n\r\n        (bool success, ) = msg.sender.call{value: deposit}(\"\");\r\n\r\n        require(success, \"Transfer failed\");\r\n\r\n        emit Withdraw(msg.sender, deposit);\r\n    }\r\n\r\n    function addTeamMember(address account) public {\r\n        grantRole(TEAM_MEMBER_ROLE, account);\r\n    }\r\n\r\n    function removeTeamMember(address account) public {\r\n        revokeRole(TEAM_MEMBER_ROLE, account);\r\n    }\r\n\r\n    function getTotalSupplyPool() view public returns (uint256 totalSupply) {\r\n        return total;\r\n    }\r\n}\r\n",
  "sourcePath": "D:\\Projects\\DeFi\\vault-transfer\\contracts\\Pool.sol",
  "compiler": {
    "name": "solc",
    "version": "0.8.0+commit.c7dfd78e.Emscripten.clang"
  },
  "schemaVersion": "3.4.7",
  "updatedAt": "2022-05-19T06:01:00.427Z",
  "networkType": "ethereum",
  "devdoc": {
    "kind": "dev",
    "methods": {
      "getRoleAdmin(bytes32)": {
        "details": "Returns the admin role that controls `role`. See {grantRole} and {revokeRole}. To change a role's admin, use {_setRoleAdmin}."
      },
      "grantRole(bytes32,address)": {
        "details": "Grants `role` to `account`. If `account` had not been already granted `role`, emits a {RoleGranted} event. Requirements: - the caller must have ``role``'s admin role."
      },
      "hasRole(bytes32,address)": {
        "details": "Returns `true` if `account` has been granted `role`."
      },
      "renounceRole(bytes32,address)": {
        "details": "Revokes `role` from the calling account. Roles are often managed via {grantRole} and {revokeRole}: this function's purpose is to provide a mechanism for accounts to lose their privileges if they are compromised (such as when a trusted device is misplaced). If the calling account had been revoked `role`, emits a {RoleRevoked} event. Requirements: - the caller must be `account`."
      },
      "revokeRole(bytes32,address)": {
        "details": "Revokes `role` from `account`. If `account` had been granted `role`, emits a {RoleRevoked} event. Requirements: - the caller must have ``role``'s admin role."
      },
      "supportsInterface(bytes4)": {
        "details": "See {IERC165-supportsInterface}."
      }
    },
    "version": 1
  },
  "userdoc": {
    "kind": "user",
    "methods": {},
    "version": 1
  }
}